:100000000C9462000C948A000C948A000C948A0070
:100010000C948A000C948A000C948A000C948A0038
:100020000C948A000C948A000C948A000C948A0028
:100030000C948A000C948A000C948A000C948A0018
:100040000C947B050C948A000C948A000C948A0012
:100050000C948A000C948A000C948A000C948A00F8
:100060000C948A000C948A000000000024002700F1
:100070002A0000000000250028002B0000000000DE
:1000800023002600290004040404040404040202DA
:100090000202020203030303030301020408102007
:1000A0004080010204081020010204081020000012
:1000B0000008000201000003040700000000000027
:1000C00000001F0711241FBECFEFD8E0DEBFCDBF59
:1000D00011E0A0E0B1E0E6E4F3E102C005900D928A
:1000E000A834B107D9F721E0A8E4B1E001C01D921E
:1000F000A937B207E1F710E0C2E6D0E004C02197CB
:10010000FE010E949B09C136D107C9F70E94C505AF
:100110000C94A1090C940000AF92BF92CF92DF9291
:10012000EF92FF920F931F93CF93DF936C017B01AC
:100130008B01040F151FEB015E01AE18BF08C0173D
:10014000D10759F06991D601ED91FC910190F081B0
:10015000E02DC6010995892B79F7C501DF91CF9173
:100160001F910F91FF90EF90DF90CF90BF90AF90D5
:100170000895833081F028F4813099F08230A9F01D
:1001800008958730A9F08830C9F08430B1F48091A7
:1001900080008F7D03C0809180008F7780938000E6
:1001A000089584B58F7784BD089584B58F7DFBCF86
:1001B0008091B0008F778093B00008958091B00057
:1001C0008F7DF9CFCF93DF93282F30E0F901E255EF
:1001D000FF4F8491F901E656FF4FD491F901EA5798
:1001E000FF4FC491CC23A1F081110E94B900EC2FE4
:1001F000F0E0EE0FFF1FE458FF4FA591B491EC9192
:10020000ED2381E090E009F480E0DF91CF91089543
:1002100080E090E0FACF1F93CF93DF93282F30E058
:10022000F901E255FF4F8491F901E656FF4FD49151
:10023000F901EA57FF4FC491CC23A9F0162F811181
:100240000E94B900EC2FF0E0EE0FFF1FEE58FF4FB9
:10025000A591B4918FB7F894EC91111108C0D09585
:10026000DE23DC938FBFDF91CF911F910895DE2BAA
:10027000F8CFCF93DF9390E0FC01E656FF4F249137
:100280008A579F4FFC0184918823D1F090E0880F1A
:10029000991FFC01E859FF4FA591B491FC01EE585C
:1002A000FF4FC591D49161110EC09FB7F8948C9106
:1002B000E22FE0958E238C932881E223E8839FBF71
:1002C000DF91CF9108958FB7F894EC91E22BEC93E6
:1002D0008FBFF6CF3FB7F89480914D0190914E01BA
:1002E000A0914F01B091500126B5A89B05C02F3FAA
:1002F00019F00196A11DB11D3FBFBA2FA92F982F4C
:100300008827BC01CD01620F711D811D911D42E046
:10031000660F771F881F991F4A95D1F708958F920E
:100320009F92AF92BF92CF92DF92EF92FF924B01DA
:100330005C010E946A016B017C010E946A016C19D8
:100340007D098E099F09683E734081059105A8F3D8
:1003500021E0821A9108A108B10888EEC80E83E056
:10036000D81EE11CF11C81149104A104B10429F7E9
:10037000FF90EF90DF90CF90BF90AF909F908F90C5
:100380000895089590E080E00895FC010190002018
:10039000E9F73197AF01481B590BBC0181E691E0A9
:1003A0000C948C008F929F92AF92BF920F931F93E9
:1003B000CF93DF93CDB7DEB7A1970FB6F894DEBF2A
:1003C0000FBECDBF19A2423008F44AE08E010F5D86
:1003D0001F4F842E912CB12CA12CA50194010E94B9
:1003E0007909E62FB901CA01EA30F4F4E05DD801D9
:1003F000EE938D01232B242B252B79F790E080E0C1
:10040000109719F0CD010E94C501A1960FB6F8947E
:10041000DEBF0FBECDBFDF91CF911F910F91BF9077
:10042000AF909F908F900895E95CE1CF0C94C50147
:10043000CF93DF93EC0160E08E810E940B0161E0BD
:100440008E810E940B0160E08E810E940B018BE87F
:1004500091E00197F1F7DF91CF910895CF92DF926C
:10046000EF92FF920F931F93CF93DF936C017C0168
:1004700087E0E80EF11CD0E0C0E0062F10E0B801E4
:100480000C2E02C0759567950A94E2F76170F7012A
:1004900081917F010E940B012196C430D10579F72B
:1004A000C601DF91CF911F910F91FF90EF90DF90E8
:1004B000CF900C941802CF92DF92EF92FF920F939D
:1004C0001F93CF93DF93EC01F62E642F8C810E9453
:1004D0000B018D818F3F19F060E00E940B010F2D01
:1004E00010E08F8584FF25C06E0187E0C80ED11C07
:1004F000F12CE12CB8010E2C02C0759567950A9479
:10050000E2F76170F60181916F010E940B01FFEF2C
:10051000EF1AFF0A88E0E816F10461F7CE01DF91D7
:10052000CF911F910F91FF90EF90DF90CF900C949F
:100530001802B80184E0759567958A95E1F7CE01B8
:100540000E942E026F2DCE01DF91CF911F910F914E
:10055000FF90EF90DF90CF900C942E0240E0682F38
:1005600081E691E00C945B0281E00E94AE028BE395
:100570009FE10197F1F70895CF93DF93823029F43B
:100580009091700198609093700180937401109223
:10059000750180E48093760180E18093770180E5A6
:1005A0008093780161E0809165010E94390180911A
:1005B00066018F3F19F061E00E94390161E080918E
:1005C00067010E943901C1E6D1E09E012156314008
:1005D0008091700184FD0BC084E090E02196281783
:1005E000390744F461E08E810E943901EECF88E042
:1005F00090E0F4CF8BE39DE00197F1F760E080910C
:1006000065010E940B0160E0809167010E940B016F
:10061000809166018F3F19F060E00E940B0180918C
:10062000700184FD34C063E081E691E00E942E02F7
:10063000CBE4D6E4CE010197F1F763E081E691E0E7
:100640000E942E022197F1F763E081E691E00E947B
:100650002E0283E592E00197F1F762E081E691E0F6
:100660000E942E028091700180620E94AE0284E09E
:10067000809371018CE00E94AE020E94B40282E07D
:100680008093720186E0DF91CF910C94AE0280627C
:100690000E94AE028BE496E40197F1F7809170011D
:1006A00080620E94AE0283E592E00197F1F78091AB
:1006B000700180620E94AE02D5CF909174016917DB
:1006C00010F06FEF690FE62FF0E0EF59FE4F9489BD
:1006D000890F80680C94AE0241E00E945B0281E0C9
:1006E00090E00895CF92DF92EF92FF926C01990F04
:1006F000EE08FF08F7FE16C041E06DE281E691E0EA
:100700000E945B0266277727CB016C197D098E0951
:100710009F094AE00E94D2010196FF90EF90DF907E
:10072000CF9008954AE0C701B601FF90EF90DF90A7
:10073000CF900C94D2014F925F926F927F928F92E2
:100740009F92AF92BF92CF92DF92EF92FF920F9360
:100750001F93CF936B017C01742EAC019B010E940F
:100760007409882399F08CE091E0CF911F910F914B
:10077000FF90EF90DF90CF90BF90AF909F908F90C1
:100780007F906F905F904F900C94C5014601570188
:10079000E894B7F82FEF3FEF4FE75FE7C501B401EB
:1007A0000E94740981110DC02FEF3FEF4FE75FE703
:1007B000C501B4010E94AA0718161CF480E191E05B
:1007C000D4CF2FEF3FEF4FE75FE4C701B6010E94A0
:1007D000020918161CF484E191E0C7CF2FEF3FEF18
:1007E0004FE75FECC701B6010E94AA0787FDF3CF70
:1007F00020E030E0A901C701B6010E94AA0710E07D
:1008000000E087FF0CC041E06DE281E691E00E94CC
:100810005B02F7FAF094F7F8F09401E010E0C0E022
:1008200060E070E080E09FE37C1641F020E030E083
:1008300040E251E40E94AF07CF5FF6CFA7019601D7
:100840000E943E074B015C010E9421082B013C01E4
:100850004AE00E94D201080F191FCC23C9F1C3013D
:10086000B2010E9450089B01AC01C501B4010E9475
:100870003D074B015C0141E06EE281E691E00E94A0
:100880005B020F5F1F4FC15018F120E030E040E2E3
:1008900051E4C501B4010E9407092B013C010E94EB
:1008A00021084B01B12CA12C4AE0C501B4010E94E2
:1008B000D201080F191FC501B4010E9450089B0105
:1008C000AC01C301B2010E943D074B015C01DBCFCB
:1008D000C801CF911F910F91FF90EF90DF90CF90C3
:1008E000BF90AF909F908F907F906F905F904F9050
:1008F00008954F925F926F927F928F929F92AF92E4
:10090000BF92CF92DF92EF92FF9249015A0120E00D
:1009100030E04AE754E40E94AF076B017C0120E01D
:1009200030E04AE754E4C501B4010E94AF072B014F
:100930003C01A701960160E070E0CB010E943D07F9
:100940004B015C0120E030E0A9010E940209A501F1
:10095000940118160CF0CBC060E070E080E890E4E1
:100960000E94AF074B015C01A3019201C701B601D0
:100970000E943D076B017C0120E030E0A9010E944C
:100980000209A701960118160CF0B3C060E070E0F0
:1009900080E890E40E94AF076B017C01AC019B01F1
:1009A000C501B4010E943E0720E030E040E05FE373
:1009B0000E94070960935D0170935E0180935F015F
:1009C00090936001A7019601C501B4010E943D0703
:1009D0006B017C0120E030E0A9010E940209181699
:1009E00024F0F7FAF094F7F8F094A301920160E094
:1009F00070E0CB010E943D074B015C0120E030E03C
:100A0000A9010E940209181624F0B7FAB094B7F8A9
:100A1000B094A5019401C701B6010E94AF0760938D
:100A2000590170935A0180935B0190935C010E947D
:100A3000B40260E080E00E945D0388E191E00E94E2
:100A4000160280915701909158010E94720360E054
:100A500085E00E945D038BE191E00E9416028EE129
:100A600091E00E94160260915D0170915E0180919B
:100A70005F019091600142E00E949B0360E08DE085
:100A80000E945D0381E291E00E94160261E080E035
:100A90000E945D0385E291E00E9416026091590177
:100AA00070915A0180915B0190915C0142E00E943B
:100AB0009B0361E086E00E945D0388E291E00E9472
:100AC00016028FE291E00E941602809155019091EA
:100AD0005601FF90EF90DF90CF90BF90AF909F9026
:100AE0008F907F906F905F904F900C94720350584E
:100AF00033CF50584BCF1F920F920FB60F92112445
:100B00002F933F938F939F93AF93BF93809149010E
:100B100090914A01A0914B01B0914C013091480154
:100B200023E0230F2D3758F50196A11DB11D209309
:100B300048018093490190934A01A0934B01B093DF
:100B40004C0180914D0190914E01A0914F01B091C7
:100B500050010196A11DB11D80934D0190934E014E
:100B6000A0934F01B0935001BF91AF919F918F918E
:100B70003F912F910F900FBE0F901F90189526E870
:100B8000230F0296A11DB11DD2CF789484B5826047
:100B900084BD84B5816084BD85B5826085BD85B521
:100BA000816085BD80916E00816080936E0010929F
:100BB000810080918100826080938100809181001A
:100BC00081608093810080918000816080938000AB
:100BD0008091B10084608093B1008091B000816009
:100BE0008093B00080917A00846080937A00809135
:100BF0007A00826080937A0080917A00816080938D
:100C00007A0080917A00806880937A001092C10007
:100C100082E00E94BC0280917101982F91609093B4
:100C2000710189600E94AE0260E088E00E94390193
:100C300060E089E00E94390160E08AE00E943901A9
:100C400060E08BE00E94390160E08CE00E94390195
:100C500060E08DE00E943901C0E0D0E08AE00E94AF
:100C6000E200019759F40E94B40282E391E00E94ED
:100C70001602209799F30E940000F0CF8BE00E94AB
:100C8000E200019781F388E00E94E200019709F0F9
:100C90006EC0809157019091580101969093580130
:100CA00080935701109251011092520110925301FA
:100CB000109254010E94B40260E080E00E945D0343
:100CC00088E391E00E94160220E030E040E85FE314
:100CD00060915101709152018091530190915401A2
:100CE0000E943E076B017C01C0925101D0925201DB
:100CF000E0925301F092540161E070E080E090E0F6
:100D00000E948F0189E00E94E2000197E9F620E04D
:100D100030E040E85FE360915101709152018091B1
:100D20005301909154010E943E074B015C01809257
:100D3000510190925201A0925301B092540161E08E
:100D400070E080E090E00E948F018AE00E94E20063
:100D50000197E9F6A5019401C701B6010E94790443
:100D60006AEF70E080E090E00E948F0182CF8DE01A
:100D70000E94E200019709F07CCF8091550190918B
:100D8000560101969093560180935501109251019E
:100D90001092520110925301109254010E94B40219
:100DA00060E080E00E945D0388E391E00E9416020B
:100DB00020E030E040E85FE3609151017091520122
:100DC00080915301909154010E943E076B017C0178
:100DD000C0925101D0925201E0925301F09254011D
:100DE00061E070E080E090E00E948F018CE00E9462
:100DF000E2000197E9F620E030E040E85FE360912F
:100E000051017091520180915301909154010E94BF
:100E10003E074B015C018092510190925201A092D9
:100E20005301B092540161E070E080E090E00E94D4
:100E30008F018BE00E94E2000197E9F68BCFE1E69B
:100E4000F1E01382128284E091E09183808382E05A
:100E500084838FEF858383E0868384E0878385E0C6
:100E6000808786E0818787E08287138614861586CF
:100E70001686178681E00C94BC025058BB27AA271F
:100E80000E9455070C94C8080E94BA0838F00E94C6
:100E9000C10820F039F49F3F19F426F40C94B708E8
:100EA0000EF4E095E7FB0C94B108E92F0E94D908F5
:100EB00058F3BA17620773078407950720F079F48F
:100EC000A6F50C94FB080EF4E0950B2EBA2FA02D7E
:100ED0000B01B90190010C01CA01A0011124FF27E7
:100EE000591B99F0593F50F4503E68F11A16F040E2
:100EF000A22F232F342F4427585FF3CF46953795E1
:100F00002795A795F0405395C9F77EF41F16BA0BA5
:100F1000620B730B840BBAF09150A1F0FF0FBB1F53
:100F2000661F771F881FC2F70EC0BA0F621F731F9C
:100F3000841F48F4879577956795B795F7959E3FF9
:100F400008F0B0CF9395880F08F09927EE0F97958A
:100F5000879508950E948D0808F481E008950E9405
:100F6000C3070C94C8080E94C10858F00E94BA0830
:100F700040F029F45F3F29F00C94B10851110C9412
:100F8000FC080C94B7080E94D90868F39923B1F3C0
:100F9000552391F3951B550BBB27AA27621773079F
:100FA000840738F09F5F5F4F220F331F441FAA1F33
:100FB000A9F335D00E2E3AF0E0E832D091505040EF
:100FC000E695001CCAF72BD0FE2F29D0660F771F9D
:100FD000881FBB1F261737074807AB07B0E809F083
:100FE000BB0B802DBF01FF2793585F4F3AF09E3F08
:100FF000510578F00C94B1080C94FC085F3FE4F3C1
:10100000983ED4F3869577956795B795F7959F5F4A
:10101000C9F7880F911D9695879597F90895E1E096
:10102000660F771F881FBB1F621773078407BA07F5
:1010300020F0621B730B840BBA0BEE1F88F7E09550
:1010400008950E94E10888F09F5798F0B92F9927DA
:10105000B751B0F0E1F0660F771F881F991F1AF0A3
:10106000BA95C9F714C0B13091F00E94FB08B1E005
:1010700008950C94FB08672F782F8827B85F39F004
:10108000B93FCCF3869577956795B395D9F73EF43C
:1010900090958095709561957F4F8F4F9F4F0895E4
:1010A000E89409C097FB3EF4909580957095619502
:1010B0007F4F8F4F9F4F9923A9F0F92F96E9BB27B8
:1010C0009395F695879577956795B795F111F8CF34
:1010D000FAF4BB0F11F460FF1BC06F5F7F4F8F4F9F
:1010E0009F4F16C0882311F096E911C0772321F095
:1010F0009EE8872F762F05C0662371F096E8862F2D
:1011000070E060E02AF09A95660F771F881FDAF783
:10111000880F9695879597F90895990F0008550FB0
:10112000AA0BE0E8FEEF16161706E807F907C0F06D
:1011300012161306E407F50798F0621B730B840B75
:10114000950B39F40A2661F0232B242B252B21F44F
:1011500008950A2609F4A140A6958FEF811D811DEF
:10116000089597F99F6780E870E060E008959FEF29
:1011700080EC089500240A9416161706180609062E
:10118000089500240A9412161306140605060895FD
:10119000092E0394000C11F4882352F0BB0F40F485
:1011A000BF2B11F460FF04C06F5F7F4F8F4F9F4FC5
:1011B000089557FD9058440F551F59F05F3F71F047
:1011C0004795880F97FB991F61F09F3F79F08795AE
:1011D0000895121613061406551FF2CF4695F1DF37
:1011E00008C0161617061806991FF1CF86957105C7
:1011F000610508940895E894BB2766277727CB01FB
:1012000097F908950E948D0808F48FEF08950E94C1
:101210001A090C94C8080E94BA0838F00E94C10844
:1012200020F0952311F00C94B1080C94B708112408
:101230000C94FC080E94D90870F3959FC1F3950F98
:1012400050E0551F629FF001729FBB27F00DB11D4A
:10125000639FAA27F00DB11DAA1F649F6627B00DDA
:10126000A11D661F829F2227B00DA11D621F739FC3
:10127000B00DA11D621F839FA00D611D221F749FD1
:101280003327A00D611D231F849F600D211D822F18
:10129000762F6A2F11249F5750409AF0F1F088233F
:1012A0004AF0EE0FFF1FBB1F661F771F881F91506C
:1012B0005040A9F79E3F510580F00C94B1080C9462
:1012C000FC085F3FE4F3983ED4F3869577956795E5
:1012D000B795F795E7959F5FC1F7FE2B880F911D96
:1012E0009695879597F908950E948D08880B990B1C
:1012F0000895A1E21A2EAA1BBB1BFD010DC0AA1F57
:10130000BB1FEE1FFF1FA217B307E407F50720F06E
:10131000A21BB30BE40BF50B661F771F881F991FE9
:101320001A9469F760957095809590959B01AC0132
:10133000BD01CF010895EE0FFF1F0590F491E02D40
:061340000994F894FFCFB0
:10134600000000006C038C00C201C1016E616E00DA
:10135600696E66006F7666006E3D002C2000763D55
:10136600006D2F7300613D006D2F735E3220006D9E
:101376003D004552524F5200706C6561736520778F
:08138600616974202E2E2E0077
:107E0000112484B714BE81FFF0D085E080938100F7
:107E100082E08093C00088E18093C10086E0809377
:107E2000C20080E18093C4008EE0C9D0259A86E02C
:107E300020E33CEF91E0309385002093840096BBD3
:107E4000B09BFECF1D9AA8958150A9F7CC24DD24C4
:107E500088248394B5E0AB2EA1E19A2EF3E0BF2EE7
:107E6000A2D0813461F49FD0082FAFD0023811F036
:107E7000013811F484E001C083E08DD089C08234E0
:107E800011F484E103C0853419F485E0A6D080C0E4
:107E9000853579F488D0E82EFF2485D0082F10E0AE
:107EA000102F00270E291F29000F111F8ED06801E7
:107EB0006FC0863521F484E090D080E0DECF843638
:107EC00009F040C070D06FD0082F6DD080E0C81688
:107ED00080E7D80618F4F601B7BEE895C0E0D1E017
:107EE00062D089930C17E1F7F0E0CF16F0E7DF06D8
:107EF00018F0F601B7BEE89568D007B600FCFDCFD4
:107F0000A601A0E0B1E02C9130E011968C91119780
:107F100090E0982F8827822B932B1296FA010C0160
:107F200087BEE89511244E5F5F4FF1E0A038BF0790
:107F300051F7F601A7BEE89507B600FCFDCF97BE46
:107F4000E89526C08437B1F42ED02DD0F82E2BD052
:107F50003CD0F601EF2C8F010F5F1F4F84911BD097
:107F6000EA94F801C1F70894C11CD11CFA94CF0C13
:107F7000D11C0EC0853739F428D08EE10CD085E9AC
:107F80000AD08FE07ACF813511F488E018D01DD067
:107F900080E101D065CF982F8091C00085FFFCCF94
:107FA0009093C60008958091C00087FFFCCF809118
:107FB000C00084FD01C0A8958091C6000895E0E648
:107FC000F0E098E1908380830895EDDF803219F02E
:107FD00088E0F5DFFFCF84E1DECF1F93182FE3DFCA
:107FE0001150E9F7F2DF1F91089580E0E8DFEE27F6
:047FF000FF270994CA
:027FFE00040479
:0400000300007E007B
:00000001FF
